:020000040000fa
:080000000002040000000000f2
:020000040000fa
:04000800c80200002a
:020000040000fa
:04000c00c802000026
:020000040000fa
:04001000c802000022
:020000040000fa
:04001400c80200001e
:020000040000fa
:04001800c80200001a
:020000040000fa
:04001c00c802000016
:020000040000fa
:04002000c802000012
:020000040000fa
:04002400c80200000e
:020000040000fa
:04002800c80200000a
:020000040000fa
:04002c00c802000006
:020000040000fa
:04003000c802000002
:020000040000fa
:04003400c8020000fe
:020000040000fa
:04003800c8020000fa
:020000040000fa
:04003c00c8020000f6
:020000040000fa
:04004000c8020000f2
:020000040000fa
:04004400c8020000ee
:020000040000fa
:04004800c8020000ea
:020000040000fa
:04004c00c8020000e6
:020000040000fa
:04005000c8020000e2
:020000040000fa
:04005400c8020000de
:020000040000fa
:04005800c8020000da
:020000040000fa
:04005c00c8020000d6
:020000040000fa
:04006000c8020000d2
:020000040000fa
:04006400c8020000ce
:020000040000fa
:04006800c8020000ca
:020000040000fa
:04006c00c8020000c6
:020000040000fa
:04007000c8020000c2
:020000040000fa
:04007400c8020000be
:020000040000fa
:04007800c8020000ba
:020000040000fa
:04007c00c8020000b6
:020000040000fa
:04008000c8020000b2
:020000040000fa
:04008400c8020000ae
:020000040000fa
:04008800c8020000aa
:020000040000fa
:04008c00c8020000a6
:020000040000fa
:04009000c8020000a2
:020000040000fa
:04009400c80200009e
:020000040000fa
:04009800c80200009a
:020000040000fa
:04009c00c802000096
:020000040000fa
:0400a000c802000092
:020000040000fa
:0400a400c80200008e
:020000040000fa
:0400a800c80200008a
:020000040000fa
:0400ac00c802000086
:020000040000fa
:0400b000c802000082
:020000040000fa
:0400b400c80200007e
:020000040000fa
:0400b800c80200007a
:020000040000fa
:0400bc00c802000076
:020000040000fa
:0400c000c802000072
:020000040000fa
:0400c400c80200006e
:020000040000fa
:0400c800c80200006a
:020000040000fa
:0400cc00c802000066
:020000040000fa
:0400d000c802000062
:020000040000fa
:0400d400c80200005e
:020000040000fa
:0400d800c80200005a
:020000040000fa
:0400dc00c802000056
:020000040000fa
:0400e000c802000052
:020000040000fa
:0400e400c80200004e
:020000040000fa
:0400e800c80200004a
:020000040000fa
:0400ec00c802000046
:020000040000fa
:0400f000c802000042
:020000040000fa
:0400f400c80200003e
:020000040000fa
:0400f800c80200003a
:020000040000fa
:0400fc00c802000036
:020000040000fa
:04010000c802000031
:020000040000fa
:04010400c80200002d
:020000040000fa
:04010800c802000029
:020000040000fa
:04010c00c802000025
:020000040000fa
:04011000c802000021
:020000040000fa
:04011400c80200001d
:020000040000fa
:04011800c802000019
:020000040000fa
:04011c00c802000015
:020000040000fa
:04012000c802000011
:020000040000fa
:04012400c80200000d
:020000040000fa
:04012800c802000009
:020000040000fa
:04012c00c802000005
:020000040000fa
:04013000c802000001
:020000040000fa
:04013400c8020000fd
:020000040000fa
:04013800c8020000f9
:020000040000fa
:04013c00c8020000f5
:020000040000fa
:04014000c8020000f1
:020000040000fa
:04014400c8020000ed
:020000040000fa
:04014800c8020000e9
:020000040000fa
:04020800c802000028
:020000040000fa
:04020c00c802000024
:020000040000fa
:04021000c802000020
:020000040000fa
:04021400c80200001c
:020000040000fa
:04021800c802000018
:020000040000fa
:04021c00c802000014
:020000040000fa
:04022000c802000010
:020000040000fa
:04022400c80200000c
:020000040000fa
:04022800c802000008
:020000040000fa
:04022c00c802000004
:020000040000fa
:04023000c802000000
:020000040000fa
:04023400c8020000fc
:020000040000fa
:04023800c8020000f8
:020000040000fa
:04023c00c8020000f4
:020000040000fa
:04024000c8020000f0
:020000040000fa
:04024400c8020000ec
:020000040000fa
:04024800c8020000e8
:020000040000fa
:04024c00c8020000e4
:020000040000fa
:04025000c8020000e0
:020000040000fa
:04025400c8020000dc
:020000040000fa
:04025800c8020000d8
:020000040000fa
:04025c00c8020000d4
:020000040000fa
:04026000c8020000d0
:020000040000fa
:04026400c8020000cc
:020000040000fa
:04026800c8020000c8
:020000040000fa
:04026c00c8020000c4
:020000040000fa
:04027000c8020000c0
:020000040000fa
:04027400c8020000bc
:020000040000fa
:04027800c8020000b8
:020000040000fa
:04027c00c8020000b4
:020000040000fa
:04028000c8020000b0
:020000040000fa
:04028400c8020000ac
:020000040000fa
:04028800c8020000a8
:020000040000fa
:04028c00c8020000a4
:020000040000fa
:04029000c8020000a0
:020000040000fa
:04029400c80200009c
:020000040000fa
:04029800c802000098
:020000040000fa
:04029c00c802000094
:020000040000fa
:0402a000c802000090
:020000040000fa
:0402a400c80200008c
:020000040000fa
:0402a800c802000088
:020000040000fa
:0402ac00c802000084
:020000040000fa
:0402b000c802000080
:020000040000fa
:0402b400c80200007c
:020000040000fa
:0402b800c802000078
:020000040000fa
:0402bc00c802000074
:020000040000fa
:0402c000c802000070
:020000040000fa
:0402c400c80200006c
:020000040000fa
:0402c800c802000068
:020000040000fa
:0402cc00c802000064
:020000040000fa
:0402d000c802000060
:020000040000fa
:0402d400c80200005c
:020000040000fa
:0402d800c802000058
:020000040000fa
:0402dc00c802000054
:020000040000fa
:0402e000c802000050
:020000040000fa
:0402e400c80200004c
:020000040000fa
:0402e800c802000048
:020000040000fa
:0402ec00c802000044
:020000040000fa
:0402f000c802000040
:020000040000fa
:0402f400c80200003c
:020000040000fa
:0402f800c802000038
:020000040000fa
:0402fc00c802000034
:020000040000fa
:04030000c80200002f
:020000040000fa
:04030400c80200002b
:020000040000fa
:04030800c802000027
:020000040000fa
:04030c00c802000023
:020000040000fa
:04031000c80200001f
:020000040000fa
:04031400c80200001b
:020000040000fa
:04031800c802000017
:020000040000fa
:04031c00c802000013
:020000040000fa
:04032000c80200000f
:020000040000fa
:04032400c80200000b
:020000040000fa
:04032800c802000007
:020000040000fa
:04032c00c802000003
:020000040000fa
:04033000c8020000ff
:020000040000fa
:04033400c8020000fb
:020000040000fa
:04033800c8020000f7
:020000040000fa
:04033c00c8020000f3
:020000040000fa
:04034000c8020000ef
:020000040000fa
:04034400c8020000eb
:020000040000fa
:04034800c8020000e7
:020000040000fa
:100400004f8020000e7f22000e01880000000000b7
:10041000000020000000e000020032000001200087
:1004200020028800140007005b0007000000e000c5
:1004300003003a002056200001002000020037008f
:100440000000200001002000810f70000100320038
:1004500014000700000020000000e000020032004d
:100460000000020000000000ae04020000000000d6
:100470000040da000000fe004440a90020022000f5
:100480000000e0000300320000002000a00188000e
:100490004440a800000006008a1f78008b1f7800e7
:1004a0000000060091018800800478000000eb0045
:1004b0001a003700e284440032a0b4009905ba0063
:1004c000e284440032a0b4009906ba00e2844400f9
:1004d00032a0b4000006eb00476fde00fd07b2005b
:1004e000636ce10003003a00ebff07000000eb0043
:1004f0000a003700606ce10004003a00005deb0088
:100500008b05e900fdff3e00040037006168e10053
:10051000010032000086eb000b00070019c7ba008b
:100520001905ba000e04e00003003a000a00e000da
:10053000e0ff3a0000000600fe07b2009e018800be
:100540008a047800f5ff3700395dba008b05e900b1
:100550000c003200295dba008b05e900080032006a
:100560000c00e00003003a00e284440032a0b40032
:10057000f5ff370019ddba008b05e900faff3a00f4
:100580008904e800e184440032a0b40000000600c1
:0c0590000040da000000fe000000050042
:020000040000fa
:10059c000c0000007c0200009400000034000000fd
:1005ac006402000024010000040100007c00000033
:1005bc0004000000240000004400000004030000bc
:1005cc008c0100001402000084010000c401000032
:0405dc00fc0300001c
:020000040000fa
:1005e0000000fa00f0ff2900601988004116800021
:1005f00000002f00010070004016880001168000e6
:1006000000ff2f0000806000001688002016800088
:100610006f006000201688006960a8006980a8004b
:1006200069a0a80069c0a8000080fa0000000600c8
:100630000600fa000000eb00000f7800b800370059
:100640002116800000ff2f00008060002016880027
:10065000810020001e0078000088de008000780005
:100660002016800000804000201688000000eb006b
:100670001007980004003700000000001e009000e2
:100680000000e800100798001e009000e90f5000dd
:10069000f9ff34005116800000002800008060003f
:1006a0000000e00002003a00810020000100370055
:1006b0008000eb0052168000000024000000610062
:1006c0000000e00002003a00400020000100370076
:1006d0000000eb0081007000521680000000220034
:1006e000000061000000e00002003a00200020004d
:1006f000010037000000eb008100700052168000fe
:10070000000021000000610000f0a7000000ea00e6
:100710000000e9004f00de00010070002007980093
:100720002e0090000000e0007900340000408000be
:100730000000e00079003a001e007800e10f500050
:1007400019003a002e009000e20f50000f00320016
:10075000e20f500003003c00e10f50000f00320098
:1007600068003700e40f500005003200e80f500029
:100770005f003a000001200010408800610037004f
:1007800070002000104088005e003700400020000c
:1007900010408800000000005a00370010002000c0
:1007a00010408800570037001e007800e20f50000c
:1007b00018003a002e009000e20f50000e003200a8
:1007c000e20f500003003c00e10f50000e00320029
:1007d0004c003700e40f500004003200e80f5000d6
:1007e00045003a000228ef00460037008000200054
:1007f000104088004300370050002000104088005f
:10080000000000003f00370020002000104088005a
:100810003c0037001e007800e30f500019003a003a
:100820002e009000e20f50000f003200e20f500047
:1008300003003c00e10f50000f0032003100370090
:10084000e40f500005003200e80f50002c003a0081
:1008500000012000104088002a003700900020008e
:1008600010408800270037006000200010408800fa
:1008700000000000230037003000200010408800f6
:10088000200037001e0078000000e0001d003a0044
:100890002e009000e20f50000f003200e20f5000d7
:1008a00003003c00e10f50000e003200150037003d
:1008b000e40f500005003200e80f500011003a002c
:1008c000d0002000104088000e003700c00020003b
:1008d000104088000b003700b00020001040880056
:1008e00008003700a00020001040880005003700f5
:1008f0000000000003003700000000000100370086
:1009000000000000100020000040880003003700b5
:100910000028ef000080eb00104088001e0fe80068
:100920001e007800e30f500045ff340010408000a7
:100930000080fa00000006000000fa00213a800062
:10094000f08f2f0000806000203a88003b000700f5
:1009500023ff07000080fa00000006000a00fa00ea
:10096000f5ff07000080eb00000f78000001200079
:100970001007980000012000200798002cff0700b6
:10098000400798004e009000e10f400003003a003d
:10099000ce009000010f7800090037001e0078009b
:1009a000e10f400006003a00ae00900011079800e9
:1009b000ce00900021079800ce009000010f780033
:1009c0001e00900000407800014020002a0007002f
:1009d0000000eb0030079800040037000000000022
:1009e0003e0090000000e80030079800be00900034
:1009f000e0092000808f5000f8ff34002e009000a6
:100a000000407800018020001b0007000000eb0080
:100a10003007980004003700000000003e009000fe
:100a20000000e80030079800be009000e0092000b8
:100a3000808f5000f8ff3400d0ff37000000fa002c
:100a4000f0ff2900601988004116800030002f0057
:100a5000008060004016880061168000c0ff200002
:100a60000100700060168800601680006016880023
:100a70000080fa00000006000400fa00004f780031
:100a8000110798006116800030002c000080600083
:100a9000601688001e00fb0080004000e02c28004b
:100aa00000804000900078001e00900081007000df
:100ab0006016800001007000601688000080fa0057
:040ac000000006002c
:020000040000fa
:100ac400000800000200000000000000020800000e
:100ad40002000000020000001000000000000000fe
:020000040000fa
:020000040001f9
:0457f8000ff90000a5
:020000040000fa
:020000040001f9
:0457fc007f3f0000eb
:00000001FF
