:020000040000fa
:080000000002040000000000f2
:020000040000fa
:04000800a40300004d
:020000040000fa
:04000c00a403000049
:020000040000fa
:04001000a403000045
:020000040000fa
:04001400a403000041
:020000040000fa
:04001800a40300003d
:020000040000fa
:04001c00a403000039
:020000040000fa
:04002000a403000035
:020000040000fa
:04002400a403000031
:020000040000fa
:04002800a40300002d
:020000040000fa
:04002c00e8020000e6
:020000040000fa
:04003000a403000025
:020000040000fa
:04003400a403000021
:020000040000fa
:04003800a40300001d
:020000040000fa
:04003c00a403000019
:020000040000fa
:04004000a403000015
:020000040000fa
:04004400c8020000ee
:020000040000fa
:04004800a40300000d
:020000040000fa
:04004c00a403000009
:020000040000fa
:04005000a403000005
:020000040000fa
:04005400a403000001
:020000040000fa
:04005800a4030000fd
:020000040000fa
:04005c00a4030000f9
:020000040000fa
:04006000a4030000f5
:020000040000fa
:04006400a4030000f1
:020000040000fa
:04006800a4030000ed
:020000040000fa
:04006c00a4030000e9
:020000040000fa
:04007000a4030000e5
:020000040000fa
:04007400a4030000e1
:020000040000fa
:04007800a4030000dd
:020000040000fa
:04007c00a4030000d9
:020000040000fa
:04008000a4030000d5
:020000040000fa
:04008400a4030000d1
:020000040000fa
:04008800a4030000cd
:020000040000fa
:04008c00a4030000c9
:020000040000fa
:04009000a4030000c5
:020000040000fa
:04009400a4030000c1
:020000040000fa
:04009800a4030000bd
:020000040000fa
:04009c00a4030000b9
:020000040000fa
:0400a000a4030000b5
:020000040000fa
:0400a400a4030000b1
:020000040000fa
:0400a800a4030000ad
:020000040000fa
:0400ac00a4030000a9
:020000040000fa
:0400b000a4030000a5
:020000040000fa
:0400b400a4030000a1
:020000040000fa
:0400b800a40300009d
:020000040000fa
:0400bc00a403000099
:020000040000fa
:0400c000a403000095
:020000040000fa
:0400c400a403000091
:020000040000fa
:0400c800a40300008d
:020000040000fa
:0400cc00a403000089
:020000040000fa
:0400d000a403000085
:020000040000fa
:0400d400a403000081
:020000040000fa
:0400d800a40300007d
:020000040000fa
:0400dc00a403000079
:020000040000fa
:0400e000a403000075
:020000040000fa
:0400e400a403000071
:020000040000fa
:0400e800a40300006d
:020000040000fa
:0400ec00a403000069
:020000040000fa
:0400f000a403000065
:020000040000fa
:0400f400a403000061
:020000040000fa
:0400f800a40300005d
:020000040000fa
:0400fc00a403000059
:020000040000fa
:04010000a403000054
:020000040000fa
:04010400a403000050
:020000040000fa
:04010800a40300004c
:020000040000fa
:04010c00a403000048
:020000040000fa
:04011000a403000044
:020000040000fa
:04011400a403000040
:020000040000fa
:04011800a40300003c
:020000040000fa
:04011c00a403000038
:020000040000fa
:04012000a403000034
:020000040000fa
:04012400a403000030
:020000040000fa
:04012800a40300002c
:020000040000fa
:04012c00a403000028
:020000040000fa
:04013000a403000024
:020000040000fa
:04013400a403000020
:020000040000fa
:04013800a40300001c
:020000040000fa
:04013c00a403000018
:020000040000fa
:04014000a403000014
:020000040000fa
:04014400a403000010
:020000040000fa
:04014800a40300000c
:020000040000fa
:04020800a40300004b
:020000040000fa
:04020c00a403000047
:020000040000fa
:04021000a403000043
:020000040000fa
:04021400a40300003f
:020000040000fa
:04021800a40300003b
:020000040000fa
:04021c00a403000037
:020000040000fa
:04022000a403000033
:020000040000fa
:04022400a40300002f
:020000040000fa
:04022800a40300002b
:020000040000fa
:04022c00a403000027
:020000040000fa
:04023000a403000023
:020000040000fa
:04023400a40300001f
:020000040000fa
:04023800a40300001b
:020000040000fa
:04023c00a403000017
:020000040000fa
:04024000a403000013
:020000040000fa
:04024400a40300000f
:020000040000fa
:04024800a40300000b
:020000040000fa
:04024c00a403000007
:020000040000fa
:04025000a403000003
:020000040000fa
:04025400a4030000ff
:020000040000fa
:04025800a4030000fb
:020000040000fa
:04025c00a4030000f7
:020000040000fa
:04026000a4030000f3
:020000040000fa
:04026400a4030000ef
:020000040000fa
:04026800a4030000eb
:020000040000fa
:04026c00a4030000e7
:020000040000fa
:04027000a4030000e3
:020000040000fa
:04027400a4030000df
:020000040000fa
:04027800a4030000db
:020000040000fa
:04027c00a4030000d7
:020000040000fa
:04028000a4030000d3
:020000040000fa
:04028400a4030000cf
:020000040000fa
:04028800a4030000cb
:020000040000fa
:04028c00a4030000c7
:020000040000fa
:04029000a4030000c3
:020000040000fa
:04029400a4030000bf
:020000040000fa
:04029800a4030000bb
:020000040000fa
:04029c00a4030000b7
:020000040000fa
:0402a000a4030000b3
:020000040000fa
:0402a400a4030000af
:020000040000fa
:0402a800a4030000ab
:020000040000fa
:0402ac00a4030000a7
:020000040000fa
:0402b000a4030000a3
:020000040000fa
:0402b400a40300009f
:020000040000fa
:0402b800a40300009b
:020000040000fa
:0402bc00a403000097
:020000040000fa
:0402c000a403000093
:020000040000fa
:0402c400a40300008f
:020000040000fa
:0402c800a40300008b
:020000040000fa
:0402cc00a403000087
:020000040000fa
:0402d000a403000083
:020000040000fa
:0402d400a40300007f
:020000040000fa
:0402d800a40300007b
:020000040000fa
:0402dc00a403000077
:020000040000fa
:0402e000a403000073
:020000040000fa
:0402e400a40300006f
:020000040000fa
:0402e800a40300006b
:020000040000fa
:0402ec00a403000067
:020000040000fa
:0402f000a403000063
:020000040000fa
:0402f400a40300005f
:020000040000fa
:0402f800a40300005b
:020000040000fa
:0402fc00a403000057
:020000040000fa
:04030000a403000052
:020000040000fa
:04030400a40300004e
:020000040000fa
:04030800a40300004a
:020000040000fa
:04030c00a403000046
:020000040000fa
:04031000a403000042
:020000040000fa
:04031400a40300003e
:020000040000fa
:04031800a40300003a
:020000040000fa
:04031c00a403000036
:020000040000fa
:04032000a403000032
:020000040000fa
:04032400a40300002e
:020000040000fa
:04032800a40300002a
:020000040000fa
:04032c00a403000026
:020000040000fa
:04033000a403000022
:020000040000fa
:04033400a40300001e
:020000040000fa
:04033800a40300001a
:020000040000fa
:04033c00a403000016
:020000040000fa
:04034000a403000012
:020000040000fa
:04034400a40300000e
:020000040000fa
:04034800a40300000a
:020000040000fa
:100400004f8220000e7f22000e01880000000000b5
:10041000000020000000e000020032000001200087
:100420002002880014000700c90007000000e00057
:1004300003003a00e07020000100200002003700b5
:100440000000200001002000810f70000100320038
:1004500014000700000020000000e000020032004d
:100460000000020000000000e8050200000000009b
:100470000040da000000fe004440a9000000200017
:100480000000e0000300320000002000a00188000e
:100490004440a800000006008a1f78008b1f7800e7
:1004a0000000060091018800800478000000eb0045
:1004b0001a003700e284440032a0b4009905ba0063
:1004c000e284440032a0b4009906ba00e2844400f9
:1004d00032a0b4000006eb00476fde00fd07b2005b
:1004e000636ce10003003a00ebff07000000eb0043
:1004f0000a003700606ce10004003a00005deb0088
:100500008b05e900fdff3e00040037006168e10053
:10051000010032000086eb000b00070019c7ba008b
:100520001905ba000e04e00003003a000a00e000da
:10053000e0ff3a0000000600fe07b2009e018800be
:100540008a047800f5ff3700395dba008b05e900b1
:100550000c003200295dba008b05e900080032006a
:100560000c00e00003003a00e284440032a0b40032
:10057000f5ff370019ddba008b05e900faff3a00f4
:100580008904e800e184440032a0b40000000600c1
:10059000809fbe003400f80000002000a001880009
:1005a0000000fa0084e0a900104080002140800093
:1005b00061004000e0804800104088002140880031
:1005c0000080fa003400f9004f00be000040060031
:1005d0003600f800809fbe00829fbe00849fbe0050
:1005e000869fbe003400f80000002000a0018800b3
:1005f0000c00fa008420a900000a80008000eb00b3
:10060000008fbe00104080002140800042422f0039
:100610000289b900020178006002b9008401780003
:100620000301410043422f000300b80001014100d3
:10063000820078003e024000ae82480050408000b8
:100640006140800042422f000289b9000201780017
:100650006003b900860178000301410043422f0086
:100660000300b800010141008200780032408000a0
:10067000434080000000410081804900000052009a
:1006800081805a0020079800310798001e01be00a3
:1006900032408800434088002e009000be00900049
:1006a0005600070002002000a32724006a0007006c
:1006b000020020000338240067000700d27b2300db
:1006c00063582300640007003100070040079800ca
:1006d000510798004e019000de019000200020009c
:1006e00001002000800f5100818f59000a00360060
:1006f0004e019000de019000703e200001002000bd
:10070000800f5100818f590003003e004e00900081
:10071000de00900080010700104080002140800032
:1007200050408800614088000080fa003400f900e1
:100730004f03be004f02be004f01be004f00be007f
:100740003600f900004006000040da000000fe001c
:1007500000000500839f68000100e00002003d00ea
:1007600060001000e08018000300e00002003d007f
:1007700060011100e08119006b0007004f00e000ec
:1007800002003b0060001000e0801800000006003e
:100790000001be001b0007000470a70003f0a100c9
:1007a00003f8a30013003a006509b10010003200fd
:1007b000090035006928e100020035000100280029
:1007c0000000050000004000818048008502e9002b
:1007d000fcff3a0000000600f88f420005003500db
:1007e0008100d1000080d3008502e800fcff3a00c0
:1007f000000006008000eb00000005006011b8005a
:1008000059003700c70ade00f107b200f50fb20049
:1008100008003200e1cf4200020032000170a00067
:1008200024000500810f700001003200040805005b
:1008300044000500810f700002003a00140005001a
:100840008502e9000000400081c04800fcff3b0039
:100850000170a00024000500889fbe008a9fbe0092
:100860008c1f7800950007009c00330003866c0005
:100870006450e100240032006420e10027003200cf
:100880006150e100220032006120e10021003200cd
:100890008b854200eb07b1000134b800003ab80084
:1008a0000804420089844a00013ab8000030b800c8
:1008b0008880400009014a00040033000000400025
:1008c00081804800020149008b05e900c909dd006b
:1008d000830170000100320013002000c814de0004
:1008e0004814dd004709de001200b200c808de002f
:1008f000088470004b00070001f0a1000cf0a70075
:1009000001f0a0007e0037006120e100800032008d
:100910000801be000200be00f7ff37006150e10091
:10092000fcff3a007a0037006022b800060220007f
:100930000000d0008180d2000482d2008582d200e3
:100940000000a0000202520083825a00030031001e
:100950000202420083824a000000a1000603e9006f
:10096000f3ff3a0000000600889fbe008a9fbe0089
:1009700000827000040271000482710026003200bf
:100980000004be000200be006011b8006b09200028
:10099000950220000182cf000a0039000541b10014
:1009a0000082cf00070039000541b1000982cf0065
:1009b000040039000541b1000882cf000100390070
:1009c0000541b10005425200120032000a003b000e
:1009d00082817100610164008100d1000080d30038
:1009e0008984d3000884d3008b05e8000442e80022
:1009f000f7ff3a00070037000804440089844c00e0
:100a000000004800818048008b05e9000442e900ad
:100a1000f9ff3a00030007004f05be004f04be0077
:100a20000000060081002000618055000b003d00a1
:100a30000b00200061fe2f000100e1001d003400ca
:100a400082817100610164008904d1000884d300af
:100a50000000e800faff3a00710020006100640025
:100a600003007000020060000900320061044400cd
:100a7000e0844c000988a500050032008b05e800e1
:100a80006808e10002003a008904d1000884d3001c
:100a9000f20f20000258e10005003d00c75ddd00b7
:100aa000f907b20089807500080078000000060090
:100ab0000bf827008b007800000005000004be0042
:100ac00050ff07000003be000405be000200be0088
:100ad0004cff0700844f7500000006000200be00b6
:100ae0006450e100050036006420e1000200360099
:100af0000968a30001003a000800be000160a000e0
:100b00004f0678004f05be004f04be0000000600ef
:0c0b1000f0ff2f00f1ff2700f9ff370075
:020000040000fa
:100b1c000000fa00113a8000f00b20000081600008
:100b2c0060042000710520002374200080497800a7
:100b3c0081497800824978007134800000fe2f00d2
:100b4c00008060000030a0007034880031368000d6
:100b5c0000fe2f00008060002001b30030368800ba
:100b6c00103a8000000178000260a00060042000b0
:100b7c007105200023742000804978008149780099
:100b8c0082497800213a8000f08f2f0000806000ad
:100b9c00203a8800f0ff2900601988006ac0a8007c
:100bac00401680008000780000102e0001007000bc
:100bbc004016880075000700330007000080fa001b
:100bcc00000006000400fa00d1ff0700a2408000dc
:100bdc00b3408000c0408000d14080000201400042
:100bec0083814800e0408000f14080000201400019
:100bfc0083814800004180001141800002004000c8
:100c0c00838048004e09dd004200de0000007100c8
:100c1c00c208de00008fbe009e00900020fa2f005c
:100c2c000088b900000178009e0078000080eb007d
:100c3c000088b90000007800000141009e00780097
:100c4c0020fa2f000008b800010141008200780052
:100c5c00c00bb0000180b000623e200003002000f9
:100c6c00b9fe0700d007b0000180b00070408800ca
:100c7c008140880070408000814080000000780036
:100c8c005d000700d1ff37000000fa0011e1a90058
:100c9c00810880000003200001007000800888009b
:100cac001021a90010c1a9000621ef0040422f001d
:100cbc006008880011e1a80042e1a800110a800038
:100ccc00f0f92f0000806000100a8800110a8000e3
:100cdc0080ff2f00008060003000b300100a8800f5
:100cec0021058000f0f82f00008060000040a0007b
:100cfc00200588008420a9009420a80084e0a90085
:100d0c0094e0a8000080fa00000006000400fa003d
:100d1c00008fbe0000c8bf008080fb004209dd00d0
:100d2c004181200081004100be187800ae1078008f
:100d3c000040e80000e8b70000c8bf006340600056
:100d4c0000e8b7000080fa00000006000400fa007a
:100d5c0012c8bf008080fb004209dd0041812000e9
:100d6c0081004100311f7800211778000040e80015
:100d7c0012e8b70012c8bf006340600012e8b70069
:100d8c001e00be000080fa00000006000000fa0001
:100d9c004116800070b22e00008060004016880062
:100dac008421ef008221ef008021ef001000200051
:100dbc00200c8800104e20007008880091088000dc
:100dcc000003200001007000900888001221a90087
:100ddc0012c1a90013e1a800210c800080ff2f0094
:100dec00008060006000b300200c88008461a800c3
:100dfc000080fa00000006000200fa00000f7800e4
:100e0c001e007800000c88000080fa00000006002c
:020000040000fa
:100e1c000e08000004000000000000001408000090
:100e2c001000000000000000000800000e00000090
:100e3c000000000012080000020000000200000088
:080e4c0003000000000000009b
:020000040000fa
:020000040001f9
:0457f8000ff90000a5
:020000040000fa
:020000040001f9
:0457fc007f3f0000eb
:00000001FF
