:020000040000fa
:080000000002040000000000f2
:020000040000fa
:040008000e030000e3
:020000040000fa
:04000c000e030000df
:020000040000fa
:040010000e030000db
:020000040000fa
:040014000e030000d7
:020000040000fa
:040018000e030000d3
:020000040000fa
:04001c000e030000cf
:020000040000fa
:040020000e030000cb
:020000040000fa
:040024000e030000c7
:020000040000fa
:040028000e030000c3
:020000040000fa
:04002c00c802000006
:020000040000fa
:040030000e030000bb
:020000040000fa
:040034000e030000b7
:020000040000fa
:040038000e030000b3
:020000040000fa
:04003c000e030000af
:020000040000fa
:040040000e030000ab
:020000040000fa
:040044000e030000a7
:020000040000fa
:040048000e030000a3
:020000040000fa
:04004c000e0300009f
:020000040000fa
:040050000e0300009b
:020000040000fa
:040054000e03000097
:020000040000fa
:040058000e03000093
:020000040000fa
:04005c000e0300008f
:020000040000fa
:040060000e0300008b
:020000040000fa
:040064000e03000087
:020000040000fa
:040068000e03000083
:020000040000fa
:04006c000e0300007f
:020000040000fa
:040070000e0300007b
:020000040000fa
:040074000e03000077
:020000040000fa
:040078000e03000073
:020000040000fa
:04007c000e0300006f
:020000040000fa
:040080000e0300006b
:020000040000fa
:040084000e03000067
:020000040000fa
:040088000e03000063
:020000040000fa
:04008c000e0300005f
:020000040000fa
:040090000e0300005b
:020000040000fa
:040094000e03000057
:020000040000fa
:040098000e03000053
:020000040000fa
:04009c000e0300004f
:020000040000fa
:0400a0000e0300004b
:020000040000fa
:0400a4000e03000047
:020000040000fa
:0400a8000e03000043
:020000040000fa
:0400ac000e0300003f
:020000040000fa
:0400b0000e0300003b
:020000040000fa
:0400b4000e03000037
:020000040000fa
:0400b8000e03000033
:020000040000fa
:0400bc000e0300002f
:020000040000fa
:0400c0000e0300002b
:020000040000fa
:0400c4000e03000027
:020000040000fa
:0400c8000e03000023
:020000040000fa
:0400cc000e0300001f
:020000040000fa
:0400d0000e0300001b
:020000040000fa
:0400d4000e03000017
:020000040000fa
:0400d8000e03000013
:020000040000fa
:0400dc000e0300000f
:020000040000fa
:0400e0000e0300000b
:020000040000fa
:0400e4000e03000007
:020000040000fa
:0400e8000e03000003
:020000040000fa
:0400ec000e030000ff
:020000040000fa
:0400f0000e030000fb
:020000040000fa
:0400f4000e030000f7
:020000040000fa
:0400f8000e030000f3
:020000040000fa
:0400fc000e030000ef
:020000040000fa
:040100000e030000ea
:020000040000fa
:040104000e030000e6
:020000040000fa
:040108000e030000e2
:020000040000fa
:04010c000e030000de
:020000040000fa
:040110000e030000da
:020000040000fa
:040114000e030000d6
:020000040000fa
:040118000e030000d2
:020000040000fa
:04011c000e030000ce
:020000040000fa
:040120000e030000ca
:020000040000fa
:040124000e030000c6
:020000040000fa
:040128000e030000c2
:020000040000fa
:04012c000e030000be
:020000040000fa
:040130000e030000ba
:020000040000fa
:040134000e030000b6
:020000040000fa
:040138000e030000b2
:020000040000fa
:04013c000e030000ae
:020000040000fa
:040140000e030000aa
:020000040000fa
:040144000e030000a6
:020000040000fa
:040148000e030000a2
:020000040000fa
:040208000e030000e1
:020000040000fa
:04020c000e030000dd
:020000040000fa
:040210000e030000d9
:020000040000fa
:040214000e030000d5
:020000040000fa
:040218000e030000d1
:020000040000fa
:04021c000e030000cd
:020000040000fa
:040220000e030000c9
:020000040000fa
:040224000e030000c5
:020000040000fa
:040228000e030000c1
:020000040000fa
:04022c000e030000bd
:020000040000fa
:040230000e030000b9
:020000040000fa
:040234000e030000b5
:020000040000fa
:040238000e030000b1
:020000040000fa
:04023c000e030000ad
:020000040000fa
:040240000e030000a9
:020000040000fa
:040244000e030000a5
:020000040000fa
:040248000e030000a1
:020000040000fa
:04024c000e0300009d
:020000040000fa
:040250000e03000099
:020000040000fa
:040254000e03000095
:020000040000fa
:040258000e03000091
:020000040000fa
:04025c000e0300008d
:020000040000fa
:040260000e03000089
:020000040000fa
:040264000e03000085
:020000040000fa
:040268000e03000081
:020000040000fa
:04026c000e0300007d
:020000040000fa
:040270000e03000079
:020000040000fa
:040274000e03000075
:020000040000fa
:040278000e03000071
:020000040000fa
:04027c000e0300006d
:020000040000fa
:040280000e03000069
:020000040000fa
:040284000e03000065
:020000040000fa
:040288000e03000061
:020000040000fa
:04028c000e0300005d
:020000040000fa
:040290000e03000059
:020000040000fa
:040294000e03000055
:020000040000fa
:040298000e03000051
:020000040000fa
:04029c000e0300004d
:020000040000fa
:0402a0000e03000049
:020000040000fa
:0402a4000e03000045
:020000040000fa
:0402a8000e03000041
:020000040000fa
:0402ac000e0300003d
:020000040000fa
:0402b0000e03000039
:020000040000fa
:0402b4000e03000035
:020000040000fa
:0402b8000e03000031
:020000040000fa
:0402bc000e0300002d
:020000040000fa
:0402c0000e03000029
:020000040000fa
:0402c4000e03000025
:020000040000fa
:0402c8000e03000021
:020000040000fa
:0402cc000e0300001d
:020000040000fa
:0402d0000e03000019
:020000040000fa
:0402d4000e03000015
:020000040000fa
:0402d8000e03000011
:020000040000fa
:0402dc000e0300000d
:020000040000fa
:0402e0000e03000009
:020000040000fa
:0402e4000e03000005
:020000040000fa
:0402e8000e03000001
:020000040000fa
:0402ec000e030000fd
:020000040000fa
:0402f0000e030000f9
:020000040000fa
:0402f4000e030000f5
:020000040000fa
:0402f8000e030000f1
:020000040000fa
:0402fc000e030000ed
:020000040000fa
:040300000e030000e8
:020000040000fa
:040304000e030000e4
:020000040000fa
:040308000e030000e0
:020000040000fa
:04030c000e030000dc
:020000040000fa
:040310000e030000d8
:020000040000fa
:040314000e030000d4
:020000040000fa
:040318000e030000d0
:020000040000fa
:04031c000e030000cc
:020000040000fa
:040320000e030000c8
:020000040000fa
:040324000e030000c4
:020000040000fa
:040328000e030000c0
:020000040000fa
:04032c000e030000bc
:020000040000fa
:040330000e030000b8
:020000040000fa
:040334000e030000b4
:020000040000fa
:040338000e030000b0
:020000040000fa
:04033c000e030000ac
:020000040000fa
:040340000e030000a8
:020000040000fa
:040344000e030000a4
:020000040000fa
:040348000e030000a0
:020000040000fa
:100400006f8020000e7f22000e0188000000000097
:10041000000020000000e000020032000001200087
:1004200020028800140007007e0007000000e000a2
:1004300003003a00a0412000010020000200370024
:100440000000200001002000810f70000100320038
:1004500014000700000020000000e000020032004d
:1004600000000200000000006e0302000000000017
:100470000040da000000fe004440a9000000200017
:100480000000e0000300320000002000a00188000e
:100490004440a800000006008a1f78008b1f7800e7
:1004a0000000060091018800800478000000eb0045
:1004b0001a003700e284440032a0b4009905ba0063
:1004c000e284440032a0b4009906ba00e2844400f9
:1004d00032a0b4000006eb00476fde00fd07b2005b
:1004e000636ce10003003a00ebff07000000eb0043
:1004f0000a003700606ce10004003a00005deb0088
:100500008b05e900fdff3e00040037006168e10053
:10051000010032000086eb000b00070019c7ba008b
:100520001905ba000e04e00003003a000a00e000da
:10053000e0ff3a0000000600fe07b2009e018800be
:100540008a047800f5ff3700395dba008b05e900b1
:100550000c003200295dba008b05e900080032006a
:100560000c00e00003003a00e284440032a0b40032
:10057000f5ff370019ddba008b05e900faff3a00f4
:100580008904e800e184440032a0b40000000600c1
:100590003600f800809fbe00829fbe00849fbe0090
:1005a000869fbe003400f80000002000a0018800f3
:1005b0000200fa008420a900000a8000000f7800e1
:1005c0009e00780020408000008050008000eb00fa
:1005d00000408800114088001e00780020408800fc
:1005e0001e0078006e00070011e1a9000080eb00fa
:1005f000600888000621ef0011e1a8000080fa00e1
:100600003400f9004f03be004f02be004f01be0090
:100610004f00be003600f900004006000040da003e
:080620000000fe0000000500cf
:020000040000fa
:100628000000fa00113a8000f00b20000081600001
:1006380060042000710520002374200080497800a0
:1006480081497800824978007134800000fe2f00cb
:10065800008060000030a0007034880031368000cf
:1006680000fe2f00008060002001b30030368800b3
:10067800103a8000000178000260a00060042000a9
:100688007105200023742000804978008149780092
:1006980082497800213a8000f08f2f0000806000a6
:1006a800203a8800f0ff2900601988006ac0a80075
:1006b800401680008000780000102e0001007000b5
:1006c8004016880019000700390007000080fa006a
:1006d800000006000400fa00d1ff0700f013200014
:1006e800000f78000c0037000000eb00100798009e
:1006f80004003700000000001e0090000000e80021
:10070800100798009e009000703e2000808f5000d7
:10071800f8ff34001e0fe800604d20009e007800ae
:10072800808f5000f0ff3400ecff37000000fa0023
:100738004116800070b22e000080600040168800cc
:100748008421ef008221ef008021ef0010002000bb
:10075800200c8800104e2000700888009108800046
:100768000003200001007000900888001221a900f1
:1007780012c1a90013e1a800210c800080ff2f00fe
:10078800008060006000b300200c88008461a8002d
:100798000080fa00000006000200fa00000f78004e
:1007a8001e007800000c88000080fa000000060097
:1007b8000000fa0000112000800888000621ef00e0
:1007c8000080eb006008880011e1a800110a800091
:1007d80080ff2f0000806000100a880042e1a80016
:1007e800110a8000f0f92f00008060000050a0007e
:1007f800100a8800110a800080ff2f000080600026
:100808003000b300100a880021058000f0f82f009e
:10081800008060000040a000200588008420a90016
:0c0828009420a8000080fa0000000600e8
:020000040000fa
:1008340000080000060000000000000000000000a6
:020000040000fa
:020000040001f9
:0457f8000ff90000a5
:020000040000fa
:020000040001f9
:0457fc007f3f0000eb
:00000001FF
