:020000040000fa
:080000000002040000000000f2
:020000040000fa
:040008007803000079
:020000040000fa
:04000c007803000075
:020000040000fa
:040010007803000071
:020000040000fa
:04001400780300006d
:020000040000fa
:040018007803000069
:020000040000fa
:04001c007803000065
:020000040000fa
:040020007803000061
:020000040000fa
:04002400780300005d
:020000040000fa
:040028007803000059
:020000040000fa
:04002c00e2020000ec
:020000040000fa
:040030007803000051
:020000040000fa
:04003400780300004d
:020000040000fa
:040038007803000049
:020000040000fa
:04003c007803000045
:020000040000fa
:040040007803000041
:020000040000fa
:04004400c8020000ee
:020000040000fa
:040048007803000039
:020000040000fa
:04004c007803000035
:020000040000fa
:040050007803000031
:020000040000fa
:04005400780300002d
:020000040000fa
:040058007803000029
:020000040000fa
:04005c007803000025
:020000040000fa
:040060007803000021
:020000040000fa
:04006400780300001d
:020000040000fa
:040068007803000019
:020000040000fa
:04006c007803000015
:020000040000fa
:040070007803000011
:020000040000fa
:04007400780300000d
:020000040000fa
:040078007803000009
:020000040000fa
:04007c007803000005
:020000040000fa
:040080007803000001
:020000040000fa
:0400840078030000fd
:020000040000fa
:0400880078030000f9
:020000040000fa
:04008c0078030000f5
:020000040000fa
:0400900078030000f1
:020000040000fa
:0400940078030000ed
:020000040000fa
:0400980078030000e9
:020000040000fa
:04009c0078030000e5
:020000040000fa
:0400a00078030000e1
:020000040000fa
:0400a40078030000dd
:020000040000fa
:0400a80078030000d9
:020000040000fa
:0400ac0078030000d5
:020000040000fa
:0400b00078030000d1
:020000040000fa
:0400b40078030000cd
:020000040000fa
:0400b80078030000c9
:020000040000fa
:0400bc0078030000c5
:020000040000fa
:0400c00078030000c1
:020000040000fa
:0400c40078030000bd
:020000040000fa
:0400c80078030000b9
:020000040000fa
:0400cc0078030000b5
:020000040000fa
:0400d00078030000b1
:020000040000fa
:0400d40078030000ad
:020000040000fa
:0400d80078030000a9
:020000040000fa
:0400dc0078030000a5
:020000040000fa
:0400e00078030000a1
:020000040000fa
:0400e400780300009d
:020000040000fa
:0400e8007803000099
:020000040000fa
:0400ec007803000095
:020000040000fa
:0400f0007803000091
:020000040000fa
:0400f400780300008d
:020000040000fa
:0400f8007803000089
:020000040000fa
:0400fc007803000085
:020000040000fa
:040100007803000080
:020000040000fa
:04010400780300007c
:020000040000fa
:040108007803000078
:020000040000fa
:04010c007803000074
:020000040000fa
:040110007803000070
:020000040000fa
:04011400780300006c
:020000040000fa
:040118007803000068
:020000040000fa
:04011c007803000064
:020000040000fa
:040120007803000060
:020000040000fa
:04012400780300005c
:020000040000fa
:040128007803000058
:020000040000fa
:04012c007803000054
:020000040000fa
:040130007803000050
:020000040000fa
:04013400780300004c
:020000040000fa
:040138007803000048
:020000040000fa
:04013c007803000044
:020000040000fa
:040140007803000040
:020000040000fa
:04014400780300003c
:020000040000fa
:040148007803000038
:020000040000fa
:040208007803000077
:020000040000fa
:04020c007803000073
:020000040000fa
:04021000780300006f
:020000040000fa
:04021400780300006b
:020000040000fa
:040218007803000067
:020000040000fa
:04021c007803000063
:020000040000fa
:04022000780300005f
:020000040000fa
:04022400780300005b
:020000040000fa
:040228007803000057
:020000040000fa
:04022c007803000053
:020000040000fa
:04023000780300004f
:020000040000fa
:04023400780300004b
:020000040000fa
:040238007803000047
:020000040000fa
:04023c007803000043
:020000040000fa
:04024000780300003f
:020000040000fa
:04024400780300003b
:020000040000fa
:040248007803000037
:020000040000fa
:04024c007803000033
:020000040000fa
:04025000780300002f
:020000040000fa
:04025400780300002b
:020000040000fa
:040258007803000027
:020000040000fa
:04025c007803000023
:020000040000fa
:04026000780300001f
:020000040000fa
:04026400780300001b
:020000040000fa
:040268007803000017
:020000040000fa
:04026c007803000013
:020000040000fa
:04027000780300000f
:020000040000fa
:04027400780300000b
:020000040000fa
:040278007803000007
:020000040000fa
:04027c007803000003
:020000040000fa
:0402800078030000ff
:020000040000fa
:0402840078030000fb
:020000040000fa
:0402880078030000f7
:020000040000fa
:04028c0078030000f3
:020000040000fa
:0402900078030000ef
:020000040000fa
:0402940078030000eb
:020000040000fa
:0402980078030000e7
:020000040000fa
:04029c0078030000e3
:020000040000fa
:0402a00078030000df
:020000040000fa
:0402a40078030000db
:020000040000fa
:0402a80078030000d7
:020000040000fa
:0402ac0078030000d3
:020000040000fa
:0402b00078030000cf
:020000040000fa
:0402b40078030000cb
:020000040000fa
:0402b80078030000c7
:020000040000fa
:0402bc0078030000c3
:020000040000fa
:0402c00078030000bf
:020000040000fa
:0402c40078030000bb
:020000040000fa
:0402c80078030000b7
:020000040000fa
:0402cc0078030000b3
:020000040000fa
:0402d00078030000af
:020000040000fa
:0402d40078030000ab
:020000040000fa
:0402d80078030000a7
:020000040000fa
:0402dc0078030000a3
:020000040000fa
:0402e000780300009f
:020000040000fa
:0402e400780300009b
:020000040000fa
:0402e8007803000097
:020000040000fa
:0402ec007803000093
:020000040000fa
:0402f000780300008f
:020000040000fa
:0402f400780300008b
:020000040000fa
:0402f8007803000087
:020000040000fa
:0402fc007803000083
:020000040000fa
:04030000780300007e
:020000040000fa
:04030400780300007a
:020000040000fa
:040308007803000076
:020000040000fa
:04030c007803000072
:020000040000fa
:04031000780300006e
:020000040000fa
:04031400780300006a
:020000040000fa
:040318007803000066
:020000040000fa
:04031c007803000062
:020000040000fa
:04032000780300005e
:020000040000fa
:04032400780300005a
:020000040000fa
:040328007803000056
:020000040000fa
:04032c007803000052
:020000040000fa
:04033000780300004e
:020000040000fa
:04033400780300004a
:020000040000fa
:040338007803000046
:020000040000fa
:04033c007803000042
:020000040000fa
:04034000780300003e
:020000040000fa
:04034400780300003a
:020000040000fa
:040348007803000036
:020000040000fa
:10040000ef8120000e7f22000e0188000000000016
:10041000000020000000e000020032000001200087
:100420002002880014000700b30007000000e0006d
:1004300003003a006069200001002000020037003c
:100440000000200001002000810f70000100320038
:1004500014000700000020000000e000020032004d
:1004600000000200000000004a0602000000000038
:100470000040da000000fe004440a9000000200017
:100480000000e0000300320000002000a00188000e
:100490004440a800000006008a1f78008b1f7800e7
:1004a0000000060091018800800478000000eb0045
:1004b0001a003700e284440032a0b4009905ba0063
:1004c000e284440032a0b4009906ba00e2844400f9
:1004d00032a0b4000006eb00476fde00fd07b2005b
:1004e000636ce10003003a00ebff07000000eb0043
:1004f0000a003700606ce10004003a00005deb0088
:100500008b05e900fdff3e00040037006168e10053
:10051000010032000086eb000b00070019c7ba008b
:100520001905ba000e04e00003003a000a00e000da
:10053000e0ff3a0000000600fe07b2009e018800be
:100540008a047800f5ff3700395dba008b05e900b1
:100550000c003200295dba008b05e900080032006a
:100560000c00e00003003a00e284440032a0b40032
:10057000f5ff370019ddba008b05e900faff3a00f4
:100580008904e800e184440032a0b40000000600c1
:10059000801f78003400f80000002000a0018800cf
:1005a0000000fa0084e0a900004080000000e8009c
:1005b000004088000080fa003400f9004f00780005
:1005c000004006003600f800809fbe00829fbe00fb
:1005d000849fbe00869fbe00881f78003400f8000c
:1005e00000002000a00188000a00fa008420a90071
:1005f00011e1a900000a80008000eb00008fbe001e
:1006000000408000cf80de0042422f000289b90006
:10061000020178006002b900840178000301410002
:1006200043422f000300b80001014100820078001e
:100630003e014000ae8148004040800051408000b3
:100640000000510081805900200798003107980070
:100650001e01be0042408800534088002e009000da
:10066000be0090004800070002002000a3272400dd
:100670005c00070023000700400798002e00900050
:10068000be0090004000070002002000a3272400c5
:100690005400070018c0b30002002000030024002b
:1006a000160007000000e00001003d000044eb00e0
:1006b0000804e000030032002e009000be0090000d
:1006c000250107000028ef0011e1a8000080fa00d2
:1006d0003400f9004f0478004f03be004f02be0003
:1006e0004f01be004f00be003600f900004006007a
:1006f0000040da000000fe0000000500f4ff2f00bb
:100700006c0037000001be00210007000470a70044
:1007100003f0a1006509b100160032000d0035009c
:100720006828e10006003500f0ff2f00f1ff2700e8
:100730000300e00013003b0001002800000005005a
:1007400000004000818048008502e900fcff3a007b
:1007500008003700f88f420002003c008000eb00e8
:10076000000005008100d1000080d3008502e80070
:10077000fcff3a000300e00002003b0060001000b4
:10078000e0801800000006006011b8006400370027
:10079000c70ade00f107b200f50fb2000800320010
:1007a000e1cf4200020032000170a00024000500e9
:1007b000810f7000010032000408050044000500ac
:1007c000810f700002003a00140005008502e90064
:1007d0000000400081c04800fcff3b000170a00009
:1007e00024000500889fbe008a9fbe008c1f7800f1
:1007f000a0000700a700330003866c006450e100ee
:10080000240032006420e100270032006150e10042
:10081000220032006120e100210032008b8542007d
:10082000eb07b1000134b800003ab80008044200f8
:1008300089844a00013ab8000030b800888040003e
:1008400009014a0004003300000040008180480094
:10085000020149008b05e900c909dd008301700030
:100860000100320013002000c814de004814dd002f
:100870004709de001200b200c808de0008847000dc
:100880005600070001f0a1000cf0a70001f0a00045
:10089000890037006120e1008b0032000801be00b2
:1008a0000200be00f7ff37006150e100fcff3a0094
:1008b00085003700889fbe008a9fbe00841f780095
:1008c0006c0007004f00780011003300f0ff2f008c
:1008d000838f6c0006003b00040565000a00a7003a
:1008e0000800370009f0a6001000200008003700bb
:1008f000820f5400838f5c00030039001000200039
:1009000001003e000000200009f0a7000000ea00fe
:100910004f05be004f04be000000e00000000600ce
:10092000889fbe008a9fbe00008270000402710092
:1009300004827100260032000004be000200be00e6
:100940006011b8006b092000950220000182cf00e1
:100950000a0039000541b1000082cf0007003900cc
:100960000541b1000982cf00040039000541b10002
:100970000882cf00010039000541b1000542520054
:10098000120032000a003b008281710061016400a4
:100990008100d1000080d3008984d3000884d30073
:1009a0008b05e8000442e800f7ff3a000700370033
:1009b0000804440089844c000000480081804800fd
:1009c0008b05e9000442e900f9ff3a000300070043
:1009d0004f05be004f04be0000000600810020004d
:1009e000618055000b003d000b00200061fe2f00d0
:1009f0000100e1001d00340082817100610164008a
:100a00008904d1000884d3000000e800faff3a000e
:100a100071002000610064000300700002006000ab
:100a20000900320061044400e0844c000988a500fc
:100a3000050032008b05e8006808e10002003a007a
:100a40008904d1000884d300f20f20000258e1008d
:100a500005003d00c75ddd00f907b2008980750023
:100a600008007800000006000bf827008b007800d3
:100a7000000005000004be0045ff07000003be00a3
:100a80000405be000200be0041ff0700844f750050
:100a9000000006000200be006450e10005003600c0
:100aa0006420e100020036000968a30001003a005a
:100ab0000800be000160a0004f0678004f05be0090
:100ac0004f04be0000000600f0ff2f00f1ff2700da
:040ad000f9ff3700f3
:020000040000fa
:100ad4000000fa0011e1a900810880000003200051
:100ae40001007000800888001021a90010c1a9002d
:100af4000621ef0040422f006008880011e1a800a1
:100b040042e1a800110a8000f0f92f000080600083
:100b1400100a8800110a800080ff2f000080600006
:100b24003000b300100a880021058000f0f82f007f
:100b3400008060000040a000200588008420a900f7
:100b44009420a80084e0a90094e0a8000080fa00a2
:100b5400000006000400fa00008fbe00228020007e
:100b6400124178008281fb001e00be00421add00a3
:100b7400e3802000830142008089be000240e80037
:100b840002e8b70002c8bf006340600002e8b70093
:100b94000080fa00000006000400fa00c280200071
:100ba400124178000280fb00c200dd00e0802000da
:100bb400008040001000be00008fbe000240e8002c
:100bc4000ce8b7000cc8bf00634060000ce8b70035
:100bd4001e00be000080fa00000006000000fa00bb
:100be400113a8000f00b20000081600060042000b6
:100bf4007105200023742000804978008149780021
:100c0400824978007134800000fe2f00008060006b
:100c14000030a000703488003136800000fe2f00c0
:100c2400008060002001b30030368800103a800054
:100c3400000178000260a00060042000710520001b
:100c44002374200080497800814978008249780023
:100c5400213a8000f08f2f0000806000203a880045
:100c6400f0ff2900601988006ac0a80040168000bf
:100c74008000780000102e000100700040168800eb
:100c84000800070092ff07000080fa000000060039
:100c94000000fa00d1ff0700e00520001c00070057
:100ca400fdff37000000fa004116800070b22e00ec
:100cb40000806000401688008421ef008221ef004c
:100cc4008021ef0010002000200c8800104e20002e
:100cd4007008880091088000000320000100700063
:100ce400900888001221a90012c1a90013e1a800ec
:100cf400210c800080ff2f00008060006000b300a2
:100d0400200c88008461a8000080fa00000006001e
:100d14000200fa00000f78001e007800000c880022
:080d24000080fa000000060047
:020000040000fa
:100d2c000e08000010000000000000000008000089
:100d3c000c000000000000000c0800000200000085
:0c0d4c0002000000030000000000000096
:020000040000fa
:020000040001f9
:0457f8000ff90000a5
:020000040000fa
:020000040001f9
:0457fc007f3f0000eb
:00000001FF
